{
  "contractName": "FileShare",
  "abi": [
    {
      "anonymous": false,
      "inputs": [
        {
          "indexed": false,
          "internalType": "string",
          "name": "fileHash",
          "type": "string"
        },
        {
          "indexed": false,
          "internalType": "string",
          "name": "fileName",
          "type": "string"
        },
        {
          "indexed": false,
          "internalType": "string",
          "name": "fileKey",
          "type": "string"
        },
        {
          "indexed": false,
          "internalType": "address",
          "name": "owner",
          "type": "address"
        }
      ],
      "name": "FileUploaded",
      "type": "event"
    },
    {
      "constant": true,
      "inputs": [],
      "name": "fileCount",
      "outputs": [
        {
          "internalType": "uint256",
          "name": "",
          "type": "uint256"
        }
      ],
      "payable": false,
      "stateMutability": "view",
      "type": "function"
    },
    {
      "constant": true,
      "inputs": [
        {
          "internalType": "uint256",
          "name": "",
          "type": "uint256"
        }
      ],
      "name": "files",
      "outputs": [
        {
          "internalType": "string",
          "name": "fileHash",
          "type": "string"
        },
        {
          "internalType": "string",
          "name": "fileName",
          "type": "string"
        },
        {
          "internalType": "string",
          "name": "fileKey",
          "type": "string"
        },
        {
          "internalType": "address",
          "name": "owner",
          "type": "address"
        }
      ],
      "payable": false,
      "stateMutability": "view",
      "type": "function"
    },
    {
      "constant": true,
      "inputs": [],
      "name": "name",
      "outputs": [
        {
          "internalType": "string",
          "name": "",
          "type": "string"
        }
      ],
      "payable": false,
      "stateMutability": "view",
      "type": "function"
    },
    {
      "constant": false,
      "inputs": [
        {
          "internalType": "string",
          "name": "_fileHash",
          "type": "string"
        },
        {
          "internalType": "string",
          "name": "_fileName",
          "type": "string"
        },
        {
          "internalType": "string",
          "name": "_fileKey",
          "type": "string"
        }
      ],
      "name": "uploadFile",
      "outputs": [],
      "payable": false,
      "stateMutability": "nonpayable",
      "type": "function"
    }
  ],
  "bytecode": "0x60c0604052600960808190526846696c65536861726560b81b60a090815261002a9160009190610042565b50600060015534801561003c57600080fd5b506100dd565b828054600181600116156101000203166002900490600052602060002090601f016020900481019282601f1061008357805160ff19168380011785556100b0565b828001600101855582156100b0579182015b828111156100b0578251825591602001919060010190610095565b506100bc9291506100c0565b5090565b6100da91905b808211156100bc57600081556001016100c6565b90565b610987806100ec6000396000f3fe608060405234801561001057600080fd5b506004361061004c5760003560e01c806306fdde031461005157806343953519146100ce57806392bb481a146100e8578063f4c714b41461029e575b600080fd5b61005961040e565b6040805160208082528351818301528351919283929083019185019080838360005b8381101561009357818101518382015260200161007b565b50505050905090810190601f1680156100c05780820380516001836020036101000a031916815260200191505b509250505060405180910390f35b6100d661049c565b60408051918252519081900360200190f35b61029c600480360360608110156100fe57600080fd5b81019060208101813564010000000081111561011957600080fd5b82018360208201111561012b57600080fd5b8035906020019184600183028401116401000000008311171561014d57600080fd5b91908080601f01602080910402602001604051908101604052809392919081815260200183838082843760009201919091525092959493602081019350359150506401000000008111156101a057600080fd5b8201836020820111156101b257600080fd5b803590602001918460018302840111640100000000831117156101d457600080fd5b91908080601f016020809104026020016040519081016040528093929190818152602001838380828437600092019190915250929594936020810193503591505064010000000081111561022757600080fd5b82018360208201111561023957600080fd5b8035906020019184600183028401116401000000008311171561025b57600080fd5b91908080601f0160208091040260200160405190810160405280939291908181526020018383808284376000920191909152509295506104a2945050505050565b005b6102bb600480360360208110156102b457600080fd5b50356106dd565b604080516001600160a01b0383166060820152608080825286519082015285519091829160208084019284019160a08501918a019080838360005b8381101561030e5781810151838201526020016102f6565b50505050905090810190601f16801561033b5780820380516001836020036101000a031916815260200191505b50848103835287518152875160209182019189019080838360005b8381101561036e578181015183820152602001610356565b50505050905090810190601f16801561039b5780820380516001836020036101000a031916815260200191505b50848103825286518152865160209182019188019080838360005b838110156103ce5781810151838201526020016103b6565b50505050905090810190601f1680156103fb5780820380516001836020036101000a031916815260200191505b5097505050505050505060405180910390f35b6000805460408051602060026001851615610100026000190190941693909304601f810184900484028201840190925281815292918301828280156104945780601f1061046957610100808354040283529160200191610494565b820191906000526020600020905b81548152906001019060200180831161047757829003601f168201915b505050505081565b60015481565b60008251116104b057600080fd5b336104ba57600080fd5b6001805481019081905560408051608081018252858152602080820186905281830185905233606083015260009384526002815291909220825180519192610507928492909101906108b7565b50602082810151805161052092600185019201906108b7565b506040820151805161053c9160028401916020909101906108b7565b5060609182015160039190910180546001600160a01b0319166001600160a01b039092169190911790556040805133928101839052608080825286519082015285517f96683af57013b7188b5b5c6a8efac267e419b9b9bd118a3834d2eb04c9831444938793879387939091829160208084019284019160a08501918a019080838360005b838110156105d95781810151838201526020016105c1565b50505050905090810190601f1680156106065780820380516001836020036101000a031916815260200191505b50848103835287518152875160209182019189019080838360005b83811015610639578181015183820152602001610621565b50505050905090810190601f1680156106665780820380516001836020036101000a031916815260200191505b50848103825286518152865160209182019188019080838360005b83811015610699578181015183820152602001610681565b50505050905090810190601f1680156106c65780820380516001836020036101000a031916815260200191505b5097505050505050505060405180910390a1505050565b600260208181526000928352604092839020805484516001821615610100026000190190911693909304601f810183900483028401830190945283835292839183018282801561076e5780601f106107435761010080835404028352916020019161076e565b820191906000526020600020905b81548152906001019060200180831161075157829003601f168201915b505050505090806001018054600181600116156101000203166002900480601f01602080910402602001604051908101604052809291908181526020018280546001816001161561010002031660029004801561080c5780601f106107e15761010080835404028352916020019161080c565b820191906000526020600020905b8154815290600101906020018083116107ef57829003601f168201915b50505060028085018054604080516020601f600019610100600187161502019094169590950492830185900485028101850190915281815295969594509092509083018282801561089e5780601f106108735761010080835404028352916020019161089e565b820191906000526020600020905b81548152906001019060200180831161088157829003601f168201915b505050600390930154919250506001600160a01b031684565b828054600181600116156101000203166002900490600052602060002090601f016020900481019282601f106108f857805160ff1916838001178555610925565b82800160010185558215610925579182015b8281111561092557825182559160200191906001019061090a565b50610931929150610935565b5090565b61094f91905b80821115610931576000815560010161093b565b9056fea265627a7a723158200097f8bfa74883424c3a6b647ff6252cc289cd877a8f6ce47f85466d32663dae64736f6c63430005100032",
  "source": "pragma solidity >=0.4.22 <0.9.0;\n\ncontract FileShare {\n    string public name = \"FileShare\";\n    uint256 public fileCount = 0;\n\n    mapping(uint256 => File) public files;\n\n    struct File {\n        string fileHash;\n        string fileName;\n        string fileKey;\n        address owner;\n    }\n\n    event FileUploaded(\n        string fileHash,\n        string fileName,\n        string fileKey,\n        address owner\n    );\n\n    function uploadFile(\n        string memory _fileHash,\n        string memory _fileName,\n        string memory _fileKey\n    ) public {\n        require(bytes(_fileName).length > 0);\n        require(msg.sender != address(0));\n\n        fileCount++;\n\n        files[fileCount] = File(_fileHash, _fileName, _fileKey, msg.sender);\n\n        emit FileUploaded(_fileHash, _fileName, _fileKey, msg.sender);\n    }\n}\n",
  "sourcePath": "/home/manasraut/code/blockchain/src/contracts/FileShare.sol",
  "compiler": {
    "name": "solc",
    "version": "0.5.16+commit.9c3226ce.Emscripten.clang"
  },
  "schemaVersion": "3.4.13",
  "updatedAt": "2023-04-15T06:45:58.613Z",
  "networkType": "ethereum",
  "devdoc": {
    "methods": {}
  },
  "userdoc": {
    "methods": {}
  }
}